{
  "abi": [
    {
      "inputs": [],
      "stateMutability": "payable",
      "type": "constructor"
    },
    {
      "anonymous": false,
      "inputs": [
        {
          "indexed": false,
          "internalType": "address",
          "name": "sender",
          "type": "address"
        },
        {
          "indexed": false,
          "internalType": "string",
          "name": "purpose",
          "type": "string"
        }
      ],
      "name": "SetPurpose",
      "type": "event"
    },
    {
      "stateMutability": "payable",
      "type": "fallback"
    },
    {
      "inputs": [],
      "name": "purpose",
      "outputs": [
        {
          "internalType": "string",
          "name": "",
          "type": "string"
        }
      ],
      "stateMutability": "view",
      "type": "function"
    },
    {
      "inputs": [
        {
          "internalType": "string",
          "name": "newPurpose",
          "type": "string"
        }
      ],
      "name": "setPurpose",
      "outputs": [],
      "stateMutability": "nonpayable",
      "type": "function"
    },
    {
      "stateMutability": "payable",
      "type": "receive"
    }
  ],
  "bytecode": {
    "object": "0x60c0604052601c60809081527f4275696c64696e6720556e73746f707061626c6520417070732121210000000060a05260009061003c90826100e1565b506101a0565b634e487b7160e01b600052604160045260246000fd5b600181811c9082168061006c57607f821691505b60208210810361008c57634e487b7160e01b600052602260045260246000fd5b50919050565b601f8211156100dc57600081815260208120601f850160051c810160208610156100b95750805b601f850160051c820191505b818110156100d8578281556001016100c5565b5050505b505050565b81516001600160401b038111156100fa576100fa610042565b61010e816101088454610058565b84610092565b602080601f831160018114610143576000841561012b5750858301515b600019600386901b1c1916600185901b1785556100d8565b600085815260208120601f198616915b8281101561017257888601518255948401946001909101908401610153565b50858210156101905787850151600019600388901b60f8161c191681555b5050505050600190811b01905550565b6105fe806101af6000396000f3fe60806040526004361061002a5760003560e01c806370740aab14610033578063eb68757f1461005e57005b3661003157005b005b34801561003f57600080fd5b5061004861007e565b60405161005591906102c4565b60405180910390f35b34801561006a57600080fd5b506100316100793660046102f4565b61010c565b6000805461008b906103a5565b80601f01602080910402602001604051908101604052809291908181526020018280546100b7906103a5565b80156101045780601f106100d957610100808354040283529160200191610104565b820191906000526020600020905b8154815290600101906020018083116100e757829003601f168201915b505050505081565b6000610118828261042d565b506101d4336040518060400160405280600e81526020016d73657420707572706f736520746f60901b81525060008054610151906103a5565b80601f016020809104026020016040519081016040528092919081815260200182805461017d906103a5565b80156101ca5780601f1061019f576101008083540402835291602001916101ca565b820191906000526020600020905b8154815290600101906020018083116101ad57829003601f168201915b5050505050610211565b7f6ea5d6383a120235c7728a9a6751672a8ac068e4ed34dcca2ee444182c1812de3360006040516102069291906104ed565b60405180910390a150565b61025883838360405160240161022993929190610588565b60408051601f198184030181529190526020810180516001600160e01b031663fb77226560e01b17905261025d565b505050565b80516a636f6e736f6c652e6c6f67602083016000808483855afa5050505050565b6000815180845260005b818110156102a457602081850181015186830182015201610288565b506000602082860101526020601f19601f83011685010191505092915050565b6020815260006102d7602083018461027e565b9392505050565b634e487b7160e01b600052604160045260246000fd5b60006020828403121561030657600080fd5b813567ffffffffffffffff8082111561031e57600080fd5b818401915084601f83011261033257600080fd5b813581811115610344576103446102de565b604051601f8201601f19908116603f0116810190838211818310171561036c5761036c6102de565b8160405282815287602084870101111561038557600080fd5b826020860160208301376000928101602001929092525095945050505050565b600181811c908216806103b957607f821691505b6020821081036103d957634e487b7160e01b600052602260045260246000fd5b50919050565b601f82111561025857600081815260208120601f850160051c810160208610156104065750805b601f850160051c820191505b8181101561042557828155600101610412565b505050505050565b815167ffffffffffffffff811115610447576104476102de565b61045b8161045584546103a5565b846103df565b602080601f83116001811461049057600084156104785750858301515b600019600386901b1c1916600185901b178555610425565b600085815260208120601f198616915b828110156104bf578886015182559484019460019091019084016104a0565b50858210156104dd5787850151600019600388901b60f8161c191681555b5050505050600190811b01905550565b60018060a01b0383168152600060206040818401526000845461050f816103a5565b8060408701526060600180841660008114610531576001811461054b57610579565b60ff1985168984015283151560051b890183019550610579565b896000528660002060005b858110156105715781548b8201860152908301908801610556565b8a0184019650505b50939998505050505050505050565b6001600160a01b03841681526060602082018190526000906105ac9083018561027e565b82810360408401526105be818561027e565b969550505050505056fea2646970667358221220eb4f5858477d156845a0ecd056abda8a8dafdb9562c50261b1c2949d25f57f1b64736f6c63430008110033",
    "linkReferences": {}
  },
  "methodIdentifiers": {
    "purpose()": "70740aab",
    "setPurpose(string)": "eb68757f"
  },
  "id": 0
}